:020000040800F2
:10000000B82B0020D5090008DB010008714C00085E
:10001000DD010008E1010008E50100080000000022
:10002000000000000000000000000000E9010008DE
:10003000EB01000800000000FB4B00085104000821
:10004000EF090008EF090008EF090008EF090008B0
:10005000EF090008EF090008EF090008EF090008A0
:10006000EF090008EF090008EF090008EF09000890
:10007000EF090008EF090008EF090008EF09000880
:10008000EF090008EF090008EF090008EF09000870
:10009000EF090008EF090008EF090008EF09000860
:1000A000EF090008EF090008EF090008EF09000850
:1000B000EF090008EF090008EF090008EF09000840
:1000C000EF090008EF090008EF090008EF09000830
:1000D000EF0900084B090008EF090008EF090008C4
:1000E000EF090008EF090008EF090008EF09000810
:1000F000EF090008EF090008EF090008EF09000800
:10010000EF090008EF090008EF090008EF090008EF
:10011000EF090008EF090008EF090008EF090008DF
:10012000EF090008EF090008EF090008EF090008CF
:1001300000F002F800F03AF80AA090E8000C8244BF
:100140008344AAF10107DA4501D100F02FF8AFF29C
:10015000090EBAE80F0013F0010F18BFFB1A43F0A5
:1001600001031847A45B0000C45B0000103A24BFE1
:1001700078C878C1FAD8520724BF30C830C144BF0C
:1001800004680C607047000000230024002500264E
:10019000103A28BF78C1FBD8520728BF30C148BFEA
:1001A0000B6070471FB51FBD10B510BD04F0FCFEFD
:1001B0001146FFF7F7FF02F0BDF904F01AFF03B490
:1001C000FFF7F2FF03BC00F065FB04F0BEFE03E0A6
:1001D00042F2107004F086FAFAE7704700BFFEE7BB
:1001E00000BFFEE700BFFEE7704770470CB5002078
:1001F000019000906C48006840F480306A490860C3
:1002000000BF6948006800F4003000900198401C6D
:100210000190009818B90198B0F5A06FF1D162482B
:10022000006800F4003010B10120009001E00020CF
:1002300000900098012843D15C48006840F010000D
:100240005A4908600846006820F003000860084624
:10025000006840F002000860534840685249486016
:100260000846406848600846406840F4806048603E
:100270000846406820F47C1048600846406840F416
:10028000E81048600846006840F08070086000BFD1
:100290004548006800F000700028F9D042484068E6
:1002A00020F00300404948600846406840F00200E2
:1002B000486000BF3C48406800F00C000828F9D1B5
:1002C0000CBD10B5FFF792FF10BD10B536480068A1
:1002D00040F001003449086008464068344908404D
:1002E0003149486008460068324908402E49086094
:1002F0000846006820F4802008600846406820F422
:10030000FE0048604FF41F008860FFF7DAFF4FF0EF
:1003100000602949086010BD10B5002100200022AE
:10032000214B5B6803F00C0121B1042906D0082998
:1003300028D107E0214B224C236027E01F4B204CA3
:10034000236023E0184B5B6803F47010164B5B6866
:1003500003F48032022303EB904022B9194B43434C
:10036000174C23600DE0104B5B6803F4003323B19E
:10037000144B4343124C236003E0104B4343104C97
:10038000236003E00D4B0E4C236000BF00BF064B03
:100390005B68C3F303130C4CE15C094B1B68CB4057
:1003A000074C236010BD00000010024000200240F6
:1003B0000000FFF8FFFFF6FE08ED00E000127A00F3
:1003C0000000002000093D00040000202448704780
:1003D0002448704770B54FF4407001F09FF82248F0
:1003E0000068224AB0FBF2F1B1F1807F00D31DE03A
:1003F00021F07F40401E4FF0E022506150170F2245
:10040000002807DA13071D0E194B00F00F04241FF4
:100410001D5503E013071C0E164B1C5400BF002093
:100420004FF0E02290610720106100BF4FF4E130EF
:1004300000F03FFA00F020F802F03AF8FFF7C8FFAA
:100440000446FFF7C3FF0546214603F02BFB70BDB2
:1004500010B502F0EDFD01F0ECFF02F0F6FD10BD6D
:10046000F8000020F820002000000020A0860100F5
:1004700018ED00E000E400E000B589B00121084675
:1004800000F0F1FD0121042000F0E0FD0720ADF8AF
:10049000200018208DF8230003208DF8220008A9E1
:1004A0002B4800F017FB40F2E730ADF818000020B1
:1004B000ADF81400ADF81A00ADF8160005A94FF01C
:1004C000804001F06DF96020ADF804000120ADF826
:1004D00006000020ADF80A00ADF80C0001A94FF0AD
:1004E000804001F09AF901A94FF0804001F0D7F95E
:1004F00001A94FF0804001F01FFA0121880701F0A7
:10050000B7FC0821C80601F0D7FD0821C80601F094
:10051000DCFD0821C80601F0E5FD0121880701F096
:100520009BFD0121880701F097FC1020ADF8200009
:100530008DF8230003208DF8220008A9044800F05C
:10054000C9FA1021024800F072FB09B000BD00009A
:100550000008014010B500F08FF810BD2DE9F04102
:1005600006460F4614461D4600F0BFF8002141EA3A
:100570004601C8B200F032F900F010F920B100F0E5
:10058000CAF80120BDE8F081384600F027F900F0F4
:1005900005F900F0AAF8012101EB4601C8B200F00C
:1005A0001DF900F0FBF80FE0012C04D1002000F051
:1005B00041F9287005E0012000F03CF900F01F002F
:1005C0002870601EC4B26D1C002CEDD100F0A3F8A1
:1005D0000020D7E72DE9FE4F00200290824602ABB3
:1005E00002220C213620FFF7B9FF9DF809109DF873
:1005F000082041EA022004F037FF06460022194B8A
:1006000004F0DAFD04460022174B04F045FF804653
:100610000022154B05F03EF8CDE9000104F0F2FC94
:10062000824651461148006805F060FA04461049B8
:1006300005F02BFA04D20F480068401C0D490860F1
:100640000A48C0F800A00B4909684FF4B47201FBD6
:1006500002F005F083F90446514605F011F9BDE8B2
:10066000FE8F00000000B04000807640180000209F
:100670000000C8421400002008B50121042000F049
:10068000E5FC4FF4C050ADF8000010208DF80300D9
:1006900003208DF8020069467B4800F01BFA4FF4F6
:1006A000C051794800F0C3FA08BD08B54FF4805036
:1006B000ADF8000048208DF8030003208DF80200FB
:1006C0006946714800F006FA08BD08B54FF480503D
:1006D000ADF8000010208DF8030003208DF8020013
:1006E0006946694800F0F6F908BD10B5FFF7EDFF5F
:1006F0000120664908606649C1F8AC0103F0F2FFC9
:10070000002062490860012003F0ECFF00206049EE
:10071000C1F8AC0110BD10B5FFF7D7FF00205B4951
:10072000086001205A49C1F8AC0103F0DBFF012049
:100730005649086003F0D6FF10BD10B5002053499C
:10074000091F0860FFF7C1FF00205149C1F8B0013F
:10075000012003F0C7FF01204C49091F086003F086
:10076000C1FF00204A49C1F8AC0110BD10B50020FE
:100770004649091F0860FFF7A8FF01204449C1F856
:10078000B00103F0AFFF01204049091F086003F0EA
:10079000A9FF00203E49C1F8AC0110BD10B50024EE
:1007A00001203A49086003F09DFFFFF77EFF01201A
:1007B0003749C1F8AC0103F095FF05E0601CC4B2F5
:1007C000FA2C01DD012010BD304880380068002877
:1007D000F4D12E49091F086000BFF4E770B5044644
:1007E000FFF773FF00202949091F086000251EE05C
:1007F000E00926490860E00910B10120086002E024
:100800000020224908606006040E012003F06AFF00
:1008100001201E49091F086003F064FF00201C49E5
:10082000C1F8AC01012003F05DFF681CC5B2082DC2
:10083000DEDB70BD70B505460024FFF736FF0026ED
:1008400017E000201149091F0860012003F04AFF4A
:1008500001200F49C1F8AC016006040E0B48803836
:10086000006808B1601CC4B2012003F03BFF701C9B
:10087000C6B2082EE5DB15B9FFF778FF01E0FFF7F8
:100880005CFF204670BD000000080140B00121421D
:1008900000002142014600BF704700BF494A12884C
:1008A00002F04002002AF9D0C2B2464B1B1D1A804A
:1008B000704710B586B00446012144F2040000F0F0
:1008C000C5FB4FF40070ADF8140003208DF816003E
:1008D00018208DF8170005A93B4800F0FBF84FF4ED
:1008E0008060ADF8140004208DF8170005A9364883
:1008F00000F0F0F825208DF8000003208DF80100AD
:100900008DF8020001208DF80300684600F00BFE10
:1009100001940020ADF80800ADF80A00ADF80C0015
:10092000ADF810000C20ADF80E0001A9254800F02C
:1009300034FC012240F22551224800F0C6FC01217E
:10094000204800F0B6FC06B010BD10B540F22551AD
:100950001C4800F09FFD10B31A4800F01BFDC4B204
:100960001A48008800F40040C8B91848008800F40C
:10097000804060B10A2C03D000201449088020E098
:100980001248008840F400401049088019E00D2CFE
:1009900006D10E48008840F480400C49088010E0E1
:1009A0000A480088C0F30D0009490C540748008824
:1009B000401C0649088008460088C72801DD002041
:1009C000088010BD003801400008014020000020D0
:1009D000F82000200948804709480047FEE7FEE765
:1009E000FEE7FEE7FEE7FEE7FEE7FEE7FEE7FEE7DF
:1009F00004480549054A064B70470000CB02000831
:100A000031010008B8250020B82B0020B8270020AD
:100A1000B827002010B50446CC48844208D10121F3
:100A2000042000F02DFB0021042000F029FB46E00B
:100A3000C748844208D10121082000F021FB002191
:100A4000082000F01DFB3AE0C248844208D1012191
:100A5000102000F015FB0021102000F011FB2EE00B
:100A6000BD48844208D10121202000F009FB00216B
:100A7000202000F005FB22E0B848844208D1012183
:100A8000402000F0FDFA0021402000F0F9FA16E0C5
:100A9000B348844208D10121802000F0F1FA0021FE
:100AA000802000F0EDFA0AE0AE48844207D101212F
:100AB000801500F0E5FA0021A01500F0E1FA10BD64
:100AC00010B50121084600F0DBFA0021012000F0FA
:100AD000D7FA10BD2DE9F04102460025002600207E
:100AE00000230024002791F803C00CF00F0591F8B3
:100AF00003C00CF0100CBCF1000F03D091F802C041
:100B00004CEA050591F800C0BCF1000F31D0146823
:100B100000202BE04FF0010C0CFA00F3B1F800C0FC
:100B20000CEA03069E4220D183004FF00F0C0CFA12
:100B300003F7BC4305FA03FC4CEA040491F803C034
:100B4000BCF1280F06D14FF0010C0CFA00FCC2F8E2
:100B500014C00AE091F803C0BCF1480F05D14FF072
:100B6000010C0CFA00FCC2F810C0401C0828D1D3BC
:100B70001460B1F800C0BCF1FF0F34DD54680020F0
:100B80002EE000F1080C4FF0010808FA0CF3B1F860
:100B900000C00CEA03069E4221D183004FF00F0CE7
:100BA0000CFA03F7BC4305FA03FC4CEA040491F881
:100BB00003C0BCF1280F05D100F1080C08FA0CF8AD
:100BC000C2F8148091F803C0BCF1480F07D100F1BE
:100BD000080C4FF0010808FA0CF8C2F81080401C0D
:100BE0000828CED35460BDE8F0814FF6FF71018034
:100BF000022181700421C170704702460020936871
:100C00000B400BB1012000E00020704701468868CE
:100C100080B2704702460020D3680B400BB1012020
:100C200000E0002070470146C86880B2704701614B
:100C30007047416170470AB1016100E0416170474E
:100C4000C16070474FF480320A43826181618261E2
:100C500082698269704702460020434B18684FF64C
:100C60008073184040EA021008433F4B18607047F9
:100C70003E49C8617047F0B50A46002300240021B0
:100C8000002500F00046B6F1004F02D1364EF16962
:100C900001E0354E7168C0F3034583B200F440169D
:100CA000B6F5401F08D121F070612F4E766826F00E
:100CB00070662D4F7E6012E000F48016B6F5801F3E
:100CC00006D1032606FA05F4A14341F0706106E05F
:100CD000460D360103FA06F6B14341F0706122B1C8
:100CE000460D360103FA06F6314300F00046B6F130
:100CF000004F02D11C4EF16101E01B4E7160F0BD4E
:100D000030B500228B071C0F0F2303FA04F2164B99
:100D100008338C1053F824309343134C08348D104F
:100D200044F8253023468C1053F824308C07240FC8
:100D300000FA04F423430C4C08348D1044F8253099
:100D400030BD0A49DC3108607047000000080140EE
:100D5000000C014000100140001401400018014047
:100D6000001C014000200140000001400000204222
:100D7000DF48006840F00100DD490860084640682F
:100D8000DC490840DA49486008460068DA4908400A
:100D9000D74908600846006820F4802008600846AB
:100DA000406820F4FE0048604FF41F0088607047E0
:100DB000CF49096821F48031CD4A11601146096894
:100DC00021F480211160B0F5803F03D0B0F5802F71
:100DD0000ED106E0C649096841F48031C44A116069
:100DE00007E0C349096841F4A021C14A116000E04D
:100DF00000BF00BF704710B501460022002300204D
:100E00004A11012A02D1BA4C236806E0022A02D113
:100E1000B74C236A01E0B64C636A01F01F0201245B
:100E200094401C400CB1012000E0002010BD38B5FA
:100E3000002000900024002500BF3120FFF7DBFFD9
:100E400005460098401C00900098B0F5A06F01D0B6
:100E5000002DF2D03120FFF7CEFF08B1012400E0D1
:100E60000024204638BD01460020A14A106820F029
:100E7000F80040EAC10010607047A0490860704760
:100E8000024600209A4B586820F47C1042EA010385
:100E90001843974B58607047984908667047014659
:100EA0000020934A506820F00300084350607047C8
:100EB0008F48406800F00C007047014600208C4AC3
:100EC000506820F0F0000843506070470146002051
:100ED000874A506820F4E06008435060704701463C
:100EE0000020834A506820F4605040EAC1005060FE
:100EF000704729B17E4A527A02437D4B5A7204E010
:100F00007B4A527A82437A4B5A7270477B49D83176
:100F10000860704701460020754A506820F4404040
:100F20000843506070470021714A20321170704AA6
:100F300082F82010012802D004280AD104E00121FF
:100F40006B4A2032117005E00521694A2032117088
:100F500000E000BF00BF70476949086070476449FE
:100F6000096A0143624A1162704765494439086061
:100F7000704730B500210022002400235C4D6D68CD
:100F800005F00C0121B1042905D0082923D105E081
:100F90005C4D056022E05B4D05601FE0544D6D68BF
:100FA00005F47012524D6D6805F48034022505EB8E
:100FB00092421CB9544D554305600BE04C4D6D6891
:100FC00005F400351DB1504D5543056002E04D4D0F
:100FD0005543056002E04B4D056000BF00BF444D26
:100FE0006D6805F0F0010909484D6B5C0568DD404E
:100FF00045603F4D6D6805F4E061090A434D6B5C47
:101000004568DD4085603A4D6D6805F46051C90A58
:101010003E4D6B5C4568DD40C560354D6D6805F43F
:101020004041890B3A4D6B5CC568B5FBF3F5056132
:1010300030BD29B12E4A526902432D4B5A6104E05A
:101040002B4A526982432A4B5A61704729B1284A78
:1010500092690243264B9A6104E0254A92698243D1
:10106000234B9A61704729B1214AD2690243204B30
:10107000DA6104E01E4AD26982431D4BDA6170478F
:1010800029B11B4AD2680243194BDA6004E0184ABE
:10109000D2688243164BDA60704729B1144A12694C
:1010A0000243134B1A6104E0114A12698243104B48
:1010B0001A61704712494039086070470F49C86487
:1010C00070470B49C87170470948406A40F080700A
:1010D00007494862704701460020054A92680A4065
:1010E0000AB1012000E00020704701498872704772
:1010F000001002400000FFF8FFFFF6FE0000424231
:101100008004424200127A0000093D0022000020C3
:101110003200002010B50446FB48844209D1012169
:101120008803FFF7ADFF00214FF48040FFF7A8FFD1
:1011300032E0F648844209D101214804FFF7ADFFAF
:1011400000214FF40030FFF7A8FF25E0F04884426B
:1011500009D101218804FFF7A0FF00214FF480206E
:10116000FFF79BFF18E0EB48844209D10121C80436
:10117000FFF793FF00214FF40020FFF78EFF0BE0F5
:10118000E548844208D101210805FFF786FF0021C8
:101190004FF48010FFF781FF10BD2DE9F04786B0B6
:1011A00005460E460024A24600BFA1460027B0898E
:1011B00000B100BF2F462C8A4CF6FF700440F08827
:1011C00004432C82AC894EF6F3100440B088318978
:1011D0000843718908430443AC81AC8A4FF6FF4051
:1011E0000440B0890443AC8201A8FFF7C2FEC648A0
:1011F000874202D1DDF810A001E0DDF80CA0A8893B
:1012000000F4004040B10AEBCA0000EB0A1031685C
:101210004900B0FBF1F807E00AEBCA0000EB0A1046
:1012200031688900B0FBF1F86420B8FBF0F00401EC
:101230002009642101FB1089A88900F4004040B115
:10124000322000EBC900B0FBF1F000F007000443CE
:1012500008E0322000EB09106421B0FBF1F000F04F
:101260000F0004432C8106B0BDE8F0874FF41651FF
:10127000016000218180C18001810C214181002118
:101280008181704710B502460020108A4FF2FF039B
:1012900018400B884C8823438C882343CC882343F5
:1012A0001843108210BD0021018041808180C180DF
:1012B000704721B1828942F40052828104E0828920
:1012C0004DF6FF731A4082817047F0B50346002443
:1012D00000260025002040F66A17B94200D100BF61
:1012E0001846C1F3421401F01F06012707FA06F55C
:1012F000012C01D10C3004E0022C01D1103000E0AF
:1013000014301AB107682F43076002E00768AF4343
:101310000760F0BD1AB1838A0B43838202E0838A9F
:101320008B4383827047028A4FF6F0731A40028221
:10133000028A0A430282704782894FF2FF731A4081
:10134000828182890A438281704721B1828942F079
:101350000202828104E082894FF6FD731A40828185
:101360007047028A4FF6DF731A400282028A0A43EC
:101370000282704721B1028A42F48042028204E074
:10138000028A4BF6FF731A4002827047C1F30802CB
:101390008280704701468888C0F3080070478189C1
:1013A00041F0010181817047028BD2B20283028B2E
:1013B00042EA012202837047028B02F47F420283D9
:1013C000028B0A430283704721B1828A42F02002D5
:1013D000828204E0828A4FF6DF731A40828270476D
:1013E00021B1828A42F01002828204E0828A4FF6A2
:1013F000EF731A408282704721B1828A42F008025C
:10140000828204E0828A4FF6F7731A408282704724
:1014100021B1828942F40042828103E08289C2F3D1
:101420000E028281704721B1828A42F40062828278
:1014300004E0828A4FF2FF731A4082827047828AE8
:101440004FF6FB731A408282828A0A438282704777
:1014500021B1828A42F00202828204E0828A4FF63F
:10146000FD731A408282704702460020B1F5007F6A
:1014700000D100BF13880B400BB1012000E0002019
:10148000704701F40072B2F5007F00D100BFCA437B
:101490000280704770B5024600240023002500201A
:1014A00040F66A16B14200D100BFC1F3421501F007
:1014B0001F03012606FA03F3012D02D1968933405A
:1014C00006E0022D02D1168A334001E0968A3340AD
:1014D0000C12012606FA04F41688344013B10CB13C
:1014E000012000E0002070BD10B50022002340F66E
:1014F0006A14A14200D100BF0A1201249440A3B291
:10150000DC43048010BD000000380140004400406E
:1015100000480040004C0040005000403149014369
:10152000314A1160704770B5002100230F22C47842
:1015300004B32D4C246804F4E064C4F5E064210A8B
:10154000C1F10403CA40447804FA03F184781440DA
:1015500021430901254C0678A155047804F01F05A4
:101560000124AC4005786D11AD0005F1E025C5F80A
:10157000004109E0047804F01F050124AC401C4D33
:101580000678761145F8264070BD1A4A0A40024393
:10159000154B1B1F1A60704739B1134A121D126890
:1015A0000243114B1B1D1A6006E00F4A121D126800
:1015B00082430D4B1B1D1A607047042808D14FF061
:1015C000E021096941F004014FF0E022116107E0D8
:1015D0004FF0E021096921F004014FF0E022116190
:1015E000704700000000FA050CED00E000E400E0A8
:1015F00080E100E080FFFF1F10B50446FE488442F2
:1016000008D10121C014FFF73BFD0021E014FFF7D2
:1016100037FDC4E0B4F1804F08D101210846FFF73F
:101620003CFD00210120FFF738FDB8E0F34884427B
:1016300008D101210220FFF730FD00210220FFF731
:101640002CFDACE0EE48844208D101210420FFF7D4
:1016500024FD00210420FFF720FDA0E0E94884429A
:1016600008D101210820FFF718FD00210820FFF70D
:1016700014FD94E0E448844208D101211020FFF7D2
:101680000CFD00211020FFF708FD88E0DF488442B0
:1016900008D101212020FFF700FD00212020FFF7C5
:1016A000FCFC7CE0DA48844208D101214014FFF7B9
:1016B000E7FC00216014FFF7E3FC70E0D5488442AA
:1016C00009D10121C804FFF7DBFC00214FF4002001
:1016D000FFF7D6FC63E0D048844209D10121080518
:1016E000FFF7CEFC00214FF48010FFF7C9FC56E055
:1016F000CA48844209D101214805FFF7C1FC0021F5
:101700004FF40010FFF7BCFC49E0C548844208D103
:1017100001214020FFF7C1FC00214020FFF7BDFC64
:101720003DE0C048844208D101218020FFF7B5FC8C
:1017300000218020FFF7B1FC31E0BB48844208D192
:1017400001218015FFF7A9FC0021A015FFF7A5FCDA
:1017500025E0B648844209D101210804FFF790FC36
:1017600000214FF48030FFF78BFC18E0B048844232
:1017700009D101214804FFF783FC00214FF4003018
:10178000FFF77EFC0BE0AB48844208D101218804BE
:10179000FFF776FC00214FF48020FFF771FC10BDAD
:1017A00000220288944B98420ED0994B98420BD05D
:1017B000B0F1804F08D0914B984205D0904B9842A1
:1017C00002D0904B984204D14FF68F731A404B8849
:1017D0001A438D4B984207D08C4B984204D04FF659
:1017E000FF431A40CB881A4302808B8883850B887D
:1017F0000385814B98420BD0854B984208D08B4B88
:10180000984205D08A4B984202D08A4B984201D127
:101810000B7A038601238382704770B5002400226F
:101820000023058C4FF6FE7635400584028C8388B4
:10183000048B4FF68F752C40B51E2C400D882C4321
:10184000751E2A400D892A434D882A436A4DA842B5
:101850000BD06F4DA84208D0744DA84205D0744DEE
:10186000A84202D0734DA84213D14FF6F7752A4013
:101870004D892A434FF6FB752A408D882A434FF63F
:10188000FF652B404FF6FF552B408D892B43CD89AB
:101890002B4383800483CD888586028470BD70B518
:1018A000002400220023058C4FF6EF763540058496
:1018B000028C8388048B48F6FF752C404FF6FF4559
:1018C0002C400D884FF6FF7606EA05252C434FF68F
:1018D000DF752A400D8906EA05152A434D8806EA78
:1018E00005152A43444DA84202D0494DA8421DD1B6
:1018F0004FF67F752A404D894FF6FF7606EA0515AB
:101900002A434FF6BF752A408D8806EA05152A43FB
:101910004FF6FF352B404FF2FF752B408D8906EABD
:1019200085052B43CD8906EA85052B4383800483F7
:10193000CD880587028470BD70B500240022002385
:10194000058C4FF6FF6635400584028C8388848BB6
:101950004FF68F752C404FF6FC752C400D882C43AC
:101960004FF6FF552A400D894FF6FF7606EA05250A
:101970002A434D8806EA05252A431F4DA84202D076
:10198000234DA8421DD14FF2FF752A404D894FF6D5
:10199000FF7606EA05252A434FF6FF352A408D8853
:1019A00006EA05252A434EF6FF752B404DF6FF75D6
:1019B0002B408D8906EA05152B43CD8906EA0515CE
:1019C0002B4383808483CD888587028470BD70B566
:1019D000002200230024058C4EF6FF763540058456
:1019E000038C8488828B48F6FF752A404FF6FF45AA
:1019F0002A400D8820E00000002C01400004004037
:101A000000080040000C004000100040001400409E
:101A100000340140004C014000500140005401409E
:101A200000180040001C0040002000400040014021
:101A300000440140004801404FF6FF7606EA0525C4
:101A40002A434DF6FF752B400D8906EA05352B43D9
:101A50004D8806EA05352B43FA4DA84202D0FA4DCF
:101A6000A84208D14BF6FF752C408D894FF6FF76C2
:101A700006EA85152C4384808283CD88A0F84050E7
:101A8000038470BD828B4FF2FF331A408283828BB6
:101A90004FF6FF7303EA01231A4382837047F0B5C0
:101AA0000C461546002200210026078C4EF6FF7CCE
:101AB00007EA0C070784828B018C4FF6FF7707EA51
:101AC000043640F6FF473A404FF6FF7707EA05270E
:101AD0003A434FF6FF7707EA03373A43D94FB84204
:101AE0000ED0D94FB8420BD0B0F1804F08D0D74FAD
:101AF000B84205D0D64FB84202D0D64FB84206D130
:101B00004DF6FF77394046F48057394305E047F6F4
:101B1000FF57394044F48057394382830184F0BD34
:101B2000828B4FF6F3731A408283828B0A4382833F
:101B30007047F0B50C461546002200210026078CA0
:101B40004FF6FF6C07EA0C070784828B018C4FF677
:101B5000FF7707EA04264FF60C773A404FF6FF77F7
:101B600007EA03172F433A43B64FB8420ED0B64F99
:101B7000B8420BD0B0F1804F08D0B44FB84205D076
:101B8000B34FB84202D0B34FB84206D14FF6FF5719
:101B9000394046F48077394305E04FF2FF5739402A
:101BA00044F48077394382830184F0BD028B4FF285
:101BB000FF331A400283028B4FF6FF7303EA0123BF
:101BC0001A4302837047F0B50C46154600220021E7
:101BD0000026078C4FF6EF7C07EA0C070784028B80
:101BE000018C4FF6FF7707EA041640F6FF473A40AC
:101BF0004FF6FF7707EA03373A434FF6FF7707EAD6
:101C000005273A438F4FB8420ED08F4FB8420BD0C2
:101C1000B0F1804F08D08D4FB84205D08C4FB842FC
:101C200002D08C4FB84206D14FF6DF77394046F0EC
:101C30001007394305E04FF65F77394044F010074D
:101C4000394302830184F0BD028B4FF6F3731A40CF
:101C50000283028B0A4302837047F0B50C46154697
:101C600000220021068C4FF6FE773E400684028B50
:101C7000018C4FF60C7632407E1C06EA03162E438A
:101C80003243704EB0420ED06F4EB0420BD0B0F126
:101C9000804F08D06D4EB04205D06D4EB04202D09C
:101CA0006C4EB04206D14FF6FD76314044F001064D
:101CB000314305E04FF6F576314044F001063143FB
:101CC00002830184F0BD70B505460C465D4885422F
:101CD0000ED05D4885420BD0B5F1804F08D05B48EF
:101CE000854205D05A48854202D05A48854200D1E3
:101CF00000E000BF208850B92389A2886188284667
:101D0000FFF7ABFFE1882846FFF79EFF25E020881C
:101D100004280AD12389A28861882846FFF753FF47
:101D2000E1882846FFF742FF17E0208808280AD1FB
:101D30002389A28861882846FFF7FBFEE1882846B0
:101D4000FFF7EEFE09E02389A28861882846FFF7A5
:101D5000A6FEE1882846FFF795FE70BD2DE9F0410B
:101D600005460C4600260127608808B9022600E0D7
:101D70000026A088012801D1022700E00127208841
:101D8000A0B92389A28861882846FFF766FFE18809
:101D90002846FFF759FF23893A4631462846FFF780
:101DA00012FFE1882846FFF701FF13E02389A2888C
:101DB00061882846FFF707FFE1882846FFF7F6FE0F
:101DC00023893A4631462846FFF747FFE1882846EF
:101DD000FFF73AFFBDE8F0810A884B881A438B88E9
:101DE0001A43CB881A430B891A434B891A438B89B0
:101DF0001A43A0F8442070474FF6FF7181800021FC
:101E00000180C180418001727047002101804180C2
:101E10008180C180018141818181C1817047002120
:101E200001804180012181800021C18001817047B2
:101E30000021018041808180C180018141818181B7
:101E400070470000002C01400034014000040040B5
:101E500000080040000C004021B1028842F001025D
:101E6000028004E002884FF6FE731A400280704739
:101E700031B1B0F8442042F40042A0F8442005E01B
:101E8000B0F84420C2F30E02A0F8442070471AB103
:101E900083890B43838102E083898B43838170476D
:101EA0008182704741EA0203A0F8483070471AB1B6
:101EB00083890B43838102E083898B43838170474D
:101EC00001894FF6F8721140018170470A460021DE
:101ED00001894FF68F73194011430181704730B566
:101EE00004460D4629462046FFF7F0FF208940F0C2
:101EF0000700208130BD2DE9F04104460D4616460D
:101F00001F46602D06D13B46012231462046FFF791
:101F10005AFE05E03B46012231462046FFF79DFE72
:101F200029462046FFF7D2FF208940F00700208194
:101F3000BDE8F08130B50C4600210189C9B24FF6E9
:101F4000FF7505EA0325154325432943018130BD6B
:101F50002DE9F04105460E461746984600244346B3
:101F60003A4631462846FFF7E5FF2C894FF6F870D0
:101F7000044044F007044FF68F70044044F07004AE
:101F80002C81BDE8F081F0B504460D4616461F468B
:101F90003B46324629462046FFF7CCFF208940F4D5
:101FA00080402081F0BD0185828270470A46002171
:101FB00001884FF68F731940114301807047F0B5C7
:101FC0000C4615461E460021002200230189028B83
:101FD000038C4FF6F877394021434FF6FC473A40DF
:101FE00040F201173A434FF6DD773B404FF6FF775B
:101FF00007EA06172F433B43018102830384F0BDA8
:102000000A460021018B4FF68F731940114301835B
:1020100070470A460021018B48F6FF7319404FF6BE
:10202000FF7303EA02231943018370470A46002124
:10203000818B4FF68F7319401143818370470A4695
:102040000021818B48F6FF7319404FF6FF7303EAB6
:10205000022319438183704721B1028842F0800234
:10206000028004E002884FF67F731A4002807047B6
:1020700021B1828842F00402828004E082884FF617
:10208000FB731A408280704721B1828842F00802B7
:10209000828004E082884FF6F7731A40828070478E
:1020A00021B1828842F00102828004E082884FF6EA
:1020B000FE731A40828070470A460021018B4FF65A
:1020C000F77319401143018370470A460021018BC1
:1020D0004FF2FF7319404FF6FF7303EA02231943CF
:1020E000018370470A460021818B4FF6F773194030
:1020F0001143818370470A460021818B4FF2FF73A1
:1021000019404FF6FF7303EA022319438183704796
:102110000A460021018B4FF6FB73194011430183DE
:1021200070470A460021018B4FF6FF3319404FF6E6
:10213000FF7303EA02231943018370470A46002113
:10214000818B4FF6FB7319401143818370470A4618
:102150000021818B4FF6FF3319404FF6FF7303EADE
:1021600002231943818370470A460021018B4FF6F1
:102170007F7319401143018370470A460021018B88
:10218000C1F30E014FF6FF7303EA022319430183E3
:1021900070470A460021818B4FF67F731940114327
:1021A000818370470A460021818BC1F30E014FF6EF
:1021B000FF7303EA02231943818370470A46002113
:1021C000018C4FF6FD7319401143018470470A4694
:1021D0000021018C4FF6F7731940114301847047B9
:1021E0000A460021018C4FF6DF7319404FF6FF734A
:1021F00003EA02131943018470470A460021018C47
:102200004FF67F7319404FF6FF7303EA0213194329
:10221000018470470A460021018C4FF6FF53194094
:102220004FF6FF7303EA02231943018470470A46FD
:102230000021018C4FF2FF7319404FF6FF7303EA40
:1022400002231943018470470A460021018C4DF690
:10225000FF7319404FF6FF7303EA023319430184F9
:10226000704730B5002301248C40A3B2048C9C43FA
:102270000484048C02FA01F5ADB22C43048430BD11
:1022800030B5002304248C40A3B2048C9C43048406
:10229000048C02FA01F5ADB22C43048430BD70B554
:1022A0000346002000241846183001258D40ACB2AA
:1022B0001D8CA5431D8409B1082909D100EB6100DB
:1022C000056825F0700505600568154305600EE09A
:1022D0000D1FC5F34E052844056825F4E04505604B
:1022E00005684FF6FF7606EA02263543056070BDA5
:1022F00021B1028842F00202028004E002884FF617
:10230000FD731A400280704721B1028842F0040236
:10231000028004E002884FF6FB731A400280704787
:1023200021B1828842F08002828004E082884FF6E8
:102330007F731A408280704702884FF6F7731A4005
:10234000028002880A430280704782884FF68F73AA
:102350001A40828082880A438280704702894FF641
:10236000F8731A40028102890A4302817047028988
:102370004FF67F731A40028102890A430281704737
:1023800081847047818570478186704701877047D7
:1023900081877047A0F84010704702884FF6FF43CE
:1023A0001A40028002880A43028070470146888EE4
:1023B00070470146088F70470146888F7047014675
:1023C000B1F8400070470146888C70470146088D7F
:1023D000704702460020138A0B400BB1012000E039
:1023E00000207047CA430282704730B50246002081
:1023F00000230024158A05EA0103958905EA0104F2
:1024000013B10CB1012000E0002030BDCA430282AC
:1024100070470000704720480068704770B5044658
:1024200002F0D4FB05461C480460284602F0D2FBAB
:1024300070BD10B518480068401C1749086002F0CC
:1024400028F80446206C401E2064206C18B9E06B0C
:10245000206402F0D8F802F048FB10BD01460029C4
:1024600002DA4FF0FF3015E04FF47A7291FBF2F28E
:102470000A4B02FB03F04FF47A7291FBF2F302FB7A
:102480001312064B5A4302F2E7324FF47A7392FB6F
:10249000F3F210447047000038000020A0860100CD
:1024A00000207047002070470020704700207047D0
:1024B00010B5234C02E020688047241D2148844247
:1024C000F9D310BD10B51F4C02E020688047241DD1
:1024D0001D488442F9D310BD10B50446FFF7F2FF42
:1024E000FDF773FE10BD1CB514200A214FF40073D4
:1024F0000022CDE90010AFF21F0114A002F032F863
:102500000446204601F0E6FF1CBD10B502F05EFB5C
:10251000FDF760FF01F0AAF902F03CFB01F01EFE9E
:10252000FFF7E1FF02F042FB00F046F801F030FE59
:10253000002010BD10B5FFF7E8FF002010BD00001F
:10254000FC5C0008005D0008045D00086D61696EB8
:102550000000000070B528E002F038FB054600BF1F
:1025600020480168814201D0012100E0002119B911
:10257000284602F02FFB19E01A480068A0F1140465
:1025800004F11400D0E900215160D0E9001211607B
:102590004060006000BFA06A01F07CFB204601F0B3
:1025A00092FD284602F016FB00BFD5E700BF70BDC4
:1025B00001E0FFF7CFFFFCE71FB520201F21C2007D
:1025C000094BCDE90032CDE902100023074A08A1EA
:1025D000094801F044FF084801F07CFF1FBD064890
:1025E00070470000BC00002038220020B125000800
:1025F0007469646C65000000C021002042681160AD
:1026000042684A604160086070472DE9F041054624
:102610000C469046204602F024F8B8F1000F03D093
:10262000B8F1010F23D105E004F114012846FFF7AA
:10263000E5FF1DE02E680FE0A6F1140794F83500C1
:1026400097F83510884206DA04F1140107F11400F6
:10265000FFF7D4FF02E03668AE42EDD100BFAE42D4
:1026600004D104F114012846FFF7C8FF00E000BFC1
:1026700000BF0020BDE8F08170B505460EE002F015
:10268000A5FA06462868A0F114044FF0FF30206335
:10269000204601F001FF304602F09CFA284600F087
:1026A000ACFC0028EBD0002070BD2DE9F0410446C1
:1026B0000D4616461F462A460221204601F09FFC81
:1026C000204600F0A2FCA68367720020BDE8F081DE
:1026D00010B5044604F11400FFF7CEFF204601F0C8
:1026E000B9FC002010BD2DE9F04105460E46174605
:1026F0002946022001F0BDFC044614B92046BDE87D
:10270000F081204600F081FCA68367722046F6E740
:1027100010B5044604F11400FFF7AEFF204601F0A7
:10272000D2FC002010BD73B5054602F04FFA0646F4
:10273000A88B002806DDA88B401EA883304602F037
:1027400049FA28E0019828B9304602F043FA6FF0C0
:1027500001007CBD01F09DFE0446002020636A7AE2
:10276000214605F11400FFF750FF0198002809DD0C
:1027700001AA002104F1440002F086F904F14400AA
:1027800002F0F9F8304602F025FA01F013FD206B53
:1027900008B1206BDDE70020DBE710B5044600211F
:1027A0002046FFF7C0FF10BD70B50446002502F0BB
:1027B0000DFA064604F1140000F01FFC28B904F1DC
:1027C000140000F02AFC01250EE0A08B4FF6FF71EB
:1027D000884203DAA08B401CA08305E0304602F05B
:1027E000F9F96FF0020070BD304602F0F3F9012DE7
:1027F00001D101F0DFFC0020F5E72DE9F0410446AE
:102800000E461546012E10D12F4602F0DFF9804604
:1028100004F11400FFF730FFA783404602F0DAF915
:1028200001F0C8FC0020BDE8F0814FF0FF30FAE76E
:102830002DE9F04104460D4616461F46DDF8188086
:102840002A460521204601F0DAFB84F8098020465B
:1028500000F0DBFBE661278400206084A084E08434
:1028600004F1280000F0C6FB0020BDE8F08110B59F
:10287000044604F11400FFF7FFFE04F12800FFF7FF
:10288000FBFE204601F0E6FB002010BD2DE9F041E3
:1028900005460E4617462946052001F0EAFB044688
:1028A00014B92046BDE8F0816772204600F0ADFB08
:1028B0002684218C880001F045F9E061E06920B9A7
:1028C000204601F000FC0020ECE700206084A0849A
:1028D000E08404F1280000F08DFB2046E2E710B50B
:1028E000044604F11400FFF7C7FE04F12800FFF7C7
:1028F000C3FEE06901F0CEF9204601F0E4FB0020C0
:1029000010BD2DE9F74304460E46002701F0C1FD36
:10291000054602F05BF98046608C218C884207D125
:10292000029828B9404602F055F9F81EBDE8FE832A
:1029300039E000202863029828B9404602F04AF99D
:102940006FF00200F2E7627A294604F12800FFF7EF
:102950005CFE029800280CDDFFF75DFD074602AA29
:10296000002105F1440002F08FF805F1440002F067
:1029700002F8404602F02EF901F01CFC286B08B169
:10298000286BD3E702F022F98046029800280ADD7E
:10299000FFF741FDC71B0298C01B02900298002858
:1029A00001DA00200290608C218C8842C1D0A18C79
:1029B000E06940F82160A08C401CA084A08C218C90
:1029C000884201DB0020A084608C4FF6FF718842B2
:1029D00003DA608C401C608405E0404602F0FAF89F
:1029E0006FF00200A2E704F1140000F006FB50B9FA
:1029F00004F1140000F011FB404602F0EBF801F086
:102A0000D9FB002092E7404602F0E4F800208DE771
:102A100070B504460D46002229462046FFF771FF97
:102A200070BD2DE9F74304460E46002701F031FD45
:102A3000054602F0CBF88046608C38B9029828B978
:102A4000404602F0C7F8B81EBDE8FE833AE0002019
:102A50002863029830B9404602F0BCF86FF00100DC
:102A60002863F1E7627A294604F11400FFF7CDFDEF
:102A7000029800280CDDFFF7CEFC074602AA0021D1
:102A800005F1440002F000F805F1440001F073FF85
:102A9000404602F09FF801F08DFB286B08B1286BCF
:102AA000D2E702F093F88046029800280ADDFFF78B
:102AB000B2FCC71B0298C01B02900298002801DAE2
:102AC00000200290608C0028C1D0E18CE06950F8B1
:102AD00021003060E08C401CE084E08C218C884236
:102AE00001DB0020E084608C002802DD608C401E49
:102AF000608404F1280000F080FA50B904F1280045
:102B000000F08BFA404602F065F801F053FB00201C
:102B10009AE7404602F05EF8002095E72DE9F04183
:102B200004460D461746012D16D102F04FF8064611
:102B300004F11400FFF7A0FD04F12800FFF79CFD4D
:102B400000206084A084E084304602F043F801F065
:102B500031FB0020BDE8F0814FF0FF30FAE72DE9AE
:102B6000F05F04460F4690469946DDE90AAB3A46C7
:102B70000621204601F043FA84F809B0204600F00F
:102B800044FAC4F81C8009F1030020F003002084FB
:102B9000208C001DBAFBF0F060840020A062E0628F
:102BA0002063002608E0208C001DE16906FB00156B
:102BB000206B28602563761C608CB042F3DC00201B
:102BC000A08404F1340000F015FA0020BDE8F09F65
:102BD00010B5044604F11400FFF74EFD04F1340073
:102BE000FFF74AFD204601F035FA002010BD2DE91F
:102BF000F0470746884691469A463946062001F036
:102C000038FA044614B92046BDE8F08784F809A0D4
:102C1000204600F0FAF908F1030020F003002084B8
:102C2000A4F82290218C091D628C01FB02F000F0B7
:102C300089FFE061E06920B9204601F044FA0020F4
:102C4000E2E70020A062E0622063002508E0208C1B
:102C5000001DE16905FB0016206B306026636D1CCA
:102C6000608CA842F3DC0020A08404F1340000F062
:102C7000C1F92046C8E710B5044604F11400FFF777
:102C8000FBFC04F13400FFF7F7FCE06901F002F807
:102C9000204601F018FA002010BD2DE9FF47044638
:102CA00089469046208C404504D24FF0FF3004B056
:102CB000BDE8F087002701F0ECFB064601F086FF37
:102CC0008246256B35B9039820B9504601F082FF42
:102CD000F81EECE739E000203063039828B950462D
:102CE00001F078FF6FF00200E1E7627A314604F10B
:102CF0003400FFF78AFC039800280CDDFFF78BFBFC
:102D0000074603AA002106F1440001F0BDFE06F1CA
:102D1000440001F030FE504601F05CFF01F04AFA39
:102D2000306B08B1306BC2E701F050FF8246039868
:102D300000280ADDFFF76FFBC71B0398C01B039039
:102D40000398002801DA00200390206B051EC2D0F2
:102D500028682063504601F03DFF0020286042466D
:102D60004946281D00F0E1F901F030FF8246E06A93
:102D700008B1E06A0560E562A06A00B9A562A08CAE
:102D80004FF6FF71884203DAA08C401CA08405E056
:102D9000504601F01FFF6FF0020088E704F11400B5
:102DA00000F02BF950B904F1140000F036F9504648
:102DB00001F010FF01F0FEF9002078E7504601F025
:102DC00009FF002073E770B504460D461646002340
:102DD000324629462046FFF760FF70BD2DE9F041DD
:102DE00004460F461646208CB04203D24FF0FF3007
:102DF000BDE8F08101F0EAFE8046256B2DB9404622
:102E000001F0E8FE6FF00200F2E728682063404618
:102E100001F0E0FE32463946281D00F086F901F047
:102E2000D5FE8046A06A2860A562E06A00B9E56226
:102E3000A08C4FF6FF71884203DAA08C401CA0845E
:102E400005E0404601F0C6FE6FF00200D0E704F155
:102E5000140000F0D2F850B904F1140000F0DDF8CD
:102E6000404601F0B7FE01F0A5F90020C0E740465A
:102E700001F0B0FE0020BBE72DE9FF4704460F46F6
:102E800090464FF0000901F004FB054601F09EFE5C
:102E90008246A08C48B9039838B9504601F09AFE92
:102EA0006FF0010004B0BDE8F0873CE0002028632B
:102EB000039830B9504601F08DFE6FF00100286391
:102EC000F0E7627A294604F11400FFF79EFB0398AD
:102ED00000280CDDFFF79FFA814603AA002105F1C7
:102EE000440001F0D1FD05F1440001F044FD5046DD
:102EF00001F070FE01F05EF9286B08B1286BD1E794
:102F000001F064FE8246039800280CDDFFF783FA87
:102F1000A0EB09090398A0EB09000390039800288F
:102F200001DA00200390A08C0028BFD0A66A306888
:102F3000A062E06AB04201D10020E062A08C0028CB
:102F400002DDA08C401EA084504601F043FE208C80
:102F5000404501D2208C00E040460246311D3846F3
:102F600000F0E3F801F032FE8246206B3060266309
:102F700004F1340000F041F850B904F1340000F0DD
:102F80004CF8504601F026FE01F014F9002089E7C4
:102F9000504601F01FFE002084E72DE9F041044671
:102FA0000E469046012E22D101F010FE074604F194
:102FB0001400FFF761FB04F13400FFF75DFB0AE04A
:102FC000A56A2868A062E06AA84201D10020E062F8
:102FD000206B28602563A06A0028F1D1A0843846C0
:102FE00001F0F8FD01F0E6F80020BDE8F0814FF0B7
:102FF000FF30FAE740600060704701460868884289
:1030000001D1012070470020FCE710B5044604F10F
:103010001400FFF7EFFF002010BD70B504462068D4
:10302000A0F11405284601F037FA002070BD000019
:1030300010B501F0CBFD044610480078401C0F4944
:103040000870204601F0C6FD10BD10B501F0BEFDB0
:1030500004460A480078401E08490870204601F0DE
:10306000B9FD10BD70B501F0B1FD05460348047807
:10307000284601F0AFFD204670BD00003C00002056
:1030800010B5FFF7EFFF10B1FB48006810BD01F06D
:1030900000FA044614B9F8480068F7E7206BF5E732
:1030A00070B50446FFF7DEFF10B1F348046070BD51
:1030B00001F0EFF9054615B9EF480460F7E72C6316
:1030C00000BFF4E710B5FFF7CDFF08B1EA4810BD27
:1030D00001F0DFF9044614B104F13000F7E7E648E7
:1030E000F5E7F0B50C460546E6B2042A15D300F024
:1030F000030797B9014646EA062343EA034304E07F
:1031000008C108C108C108C1103A102AF8D201E06C
:1031100008C1121F042AFBD20D4601E005F8016B1D
:10312000171EA2F10102F9D1F0BD2DE9F0410F46C1
:10313000164604463D463346102B28D305F0030CB3
:1031400004F003084CEA080CBCF1000F1FD1214623
:103150002A4610E052F804CB41F804CB52F804CBD5
:1031600041F804CB52F804CB41F804CB52F804CB1D
:1031700041F804CB103B102BECD204E052F804CB06
:1031800041F804CB1B1F042BF8D20C46154603E074
:1031900015F801CB04F801CBB3F1000CA3F1010346
:1031A000F6D1BDE8F08170B50C46014623468B424E
:1031B00010D29D188D420DD91144134405E05D1EB7
:1031C0002B462E784D1E29462E70151EA2F10102A7
:1031D000F5D108E003E013F8015B01F8015B151E6F
:1031E000A2F10102F7D170BDF0B5034600201C46E4
:1031F0000D4608E026782F78F61B301E00D004E03C
:10320000641C6D1C521E002AF4D800BFF0BD01469C
:103210000A4600E0521C10780028FBD1501A704773
:10322000F0B506460F463846FFF7F1FF05460DB9E3
:103230003046F0BD3046FFF7EAFF044609E0641E61
:103240002A4639463046FFF7CFFF08B93046F0E747
:10325000761CAC42F3DA0020EBE730B503460C46AF
:1032600000BF13F8011B14F8012B412902DB5A2976
:1032700000DC2031412A02DB5A2A00DC2032914254
:1032800001D10029EDD1881A30BD70B50346A2B135
:1032900018460C4600BF14F8016B00F8016B3EB9EC
:1032A00002E0002500F8015B551E2A1EF9D102E05C
:1032B000551E2A1EEFD100BF00BF184670BD30B5A5
:1032C000034600200BE011F8015B1C78641B64B21C
:1032D000201E02D113F8015B05B902E0521E002A3C
:1032E000F1D100BF30BD024601E0521C491C1078EC
:1032F00018B110780B789842F7D010780B78C01A74
:10330000704702460B46114600E0491C087810B190
:10331000881A9842F9D3881A704770B50446204637
:10332000FFF775FF451C284600F00CFC06460EB959
:10333000002070BD2A4621463046FFF7F6FE304693
:10334000F7E770472DE9F04F86B00D469C46DDE962
:10335000106401960F9B04F04008B8F1000F02D0F2
:10336000DFF8188101E0DFF81881CDF8008004F063
:103370001008B8F1000F01D024F0010404F0010896
:10338000B8F1000F02D04FF0300801E04FF02008F4
:10339000C246002704F00208B8F1000F11D0002A3D
:1033A00002DA2D2752420CE004F00408B8F1000FB5
:1033B00001D02B2705E004F00808B8F1000F00D079
:1033C0002027002142B94FF0300B8846491C0DF1EF
:1033D000080909F808B01DE01AE0E146B9F10A0F42
:1033E00008D14FF00A0BB2FBFBFE0BFB1E28B2FB11
:1033F000FBF202E002F00F08120900BFDDF80090B6
:1034000019F808B08846491C0DF1080909F808B0F8
:10341000002AE2D1B14200DD0E469B1B04F01108E8
:10342000B8F1000F10D117B1002B00DD5B1E06E0D4
:10343000A84203D24FF0200880F80080401CB3F16E
:103440000008A3F10103F3DC27B1A84200D2077002
:103450005B1E401C04F01008B8F1000F0AD104E014
:10346000A84201D280F800A0401CB3F10008A3F1EB
:103470000103F5DC0DE0000040000020E75C0008DF
:10348000D65C0008A84203D24FF0300880F80080D4
:10349000401CB046761E8845F4DC08E0A84205D200
:1034A0000DF1080818F8018080F80080401CB1F187
:1034B0000008A1F1010104DDDDF80480B8F1000F7E
:1034C000ECD106E0A84203D24FF0200880F800803B
:1034D000401CB3F10008A3F10103F3DC06B0BDE822
:1034E000F08F0146002009E00B685A1C0A601A7828
:1034F00000EB800302EB4302A2F130000A6812786D
:10350000303A0A2AF0D370472DE9FF4F89B081463F
:103510004C460A9809EB00064E4504D24FF0FF36A0
:10352000A6EB09000A9077E10B980078252806D0D1
:10353000B44202D20B9800782070641C69E1002527
:1035400026E00B98401C0B900B9800782D2802D198
:1035500045F010051CE00B9800782B2802D145F0AF
:10356000040515E00B980078202802D145F00805E5
:103570000EE00B980078232802D145F0200507E0E3
:103580000B980078302802D145F0010500E000E0FA
:10359000D7E700BF4FF0FF370B98007830380A2884
:1035A00004D20BA8FFF79DFF07460EE00B980078AA
:1035B0002A280AD10B98401C0B900C9880C80C90BC
:1035C000002F02DA7F4245F010054FF0FF3A0B98CA
:1035D00000782E281CD10B98401C0B900B9800787B
:1035E00030380A2804D20BA8FFF77BFF82460AE096
:1035F0000B9800782A2806D10B98401C0B900C9849
:1036000050F804AB0C90BAF1000F01DA4FF0000A49
:10361000002004900B980078682803D00B9800785D
:103620006C2805D10B98007804900B98401C0B90E7
:103630000A2005900B9800786F2873D00CDC632863
:1036400013D004DC25286ED058286DD195E064286D
:103650006BD06928F9D197E0702873D0732825D0F2
:1036600075286ED07828F0D18AE005F0100040B9B6
:1036700004E0B44201D220202070641C781E071E92
:10368000F7DC0C9810F8041B0C90C8B20790B442F9
:1036900001D207982070641C04E0B44201D22020BB
:1036A0002070641C781E071EF7DCB2E00C980068DE
:1036B00006900C98001D0C90069808B9B8A00690CA
:1036C0004FF0000801E008F10108B84504D0069861
:1036D00010F808000028F6D1BAF1000F02DDD0453D
:1036E00000DDD04605F0100048B904E0B44201D234
:1036F00020202070641C38467F1E4045F6DC0020E8
:1037000008900BE0B44202D2069800782070641C46
:103710000698401C06900898401C08900898404560
:10372000F0DB09E026E01FE032E02CE00AE0B442E2
:1037300001D220202070641C38467F1E4045F6DCF4
:1037400067E024E0781C10B9082745F00105CDE9B1
:10375000007A02950C9804C8102331460C9020463C
:10376000FFF7F0FD044654E0B44201D2252020705A
:10377000641C4EE0082005901DE045F0400500BFA8
:103780001020059017E000BF45F0020500BF12E0D1
:10379000B44201D225202070641C0B98007830B10F
:1037A000B44202D20B9800782070641C02E00B989F
:1037B000401E0B902DE000BF04986C2807D10C9898
:1037C00050F804BB0C9005F00200B8B116E0049864
:1037D00068280BD10C9830F8041B1FFA81FB0C9061
:1037E00005F0020050B10FFA8BFB07E00C9850F87F
:1037F00004BB0C9005F0020000B100BFCDE9007AD7
:1038000002955A4631462046059BFFF79BFD04462C
:1038100000BF0B98401C0B900B98007800287FF499
:1038200083AE0A9838B1B44202D20020207002E080
:10383000002006F8010CA4EB09000DB0BDE8F08FE4
:103840000FB438B505A80090FF215748009B049A93
:10385000FFF75AFE0446FF2C00D9FF245248FFF719
:1038600070FD0020009038BC5DF814FB08B54FA037
:10387000FFF7E6FF50A0FFF7E3FF58A00523012262
:103880000321009058A0FFF7DBFF5FA0FFF7D8FFF0
:1038900008BD0FB4F8B504460D4609A800902946A6
:1038A0002046009B089AFFF72FFE06460020009056
:1038B0003046F8BC5DF814FB37B505460C46224689
:1038C0004FF0FF312846029BFFF71EFE3EBD0FB4AE
:1038D00038B5044606A800902046009A0599FFF7DF
:1038E000EBFF054600200090284638BC5DF814FB2D
:1038F00010B5044604B910BD2046FFF722FD00BFF5
:10390000F9E72DE9F04780460C460426761EA019FB
:1039100020EA060408EB0600B04300EB0409484621
:1039200000F010F9054665B1601E284008B92F194E
:1039300004E0601E2844611E20EA010747F8045C89
:103940003D462846BDE8F08770B5044654F8045C4F
:10395000284600F09FF970BD014609B90020704764
:10396000C8B220B1C8B2334A105C401CF7E701F47A
:103970007F4028B12F48C1F30722805C0930EEE771
:1039800001F47F0028B12B48C1F30742805C11305D
:10399000E5E7284800EB116000781930DFE7000008
:1039A000284E554C4C290000382300200A205C206A
:1039B0007C202F0A000000002D205254202D2020B2
:1039C000202020546872656164204F7065726174B4
:1039D000696E672053797374656D0A0053657020B2
:1039E0003232203230323200202F207C205C2020E6
:1039F00020202025642E25642E2564206275696CA4
:103A0000642025730A0000002032303036202D203B
:103A10003230323020436F70797269676874206287
:103A2000792072742D746872656164207465616DAB
:103A30000A000000D65B000830B5F84C43682468E3
:103A40001919884215D04B889BB9F54B1B689942D0
:103A50000FD0F44B1B688B4201D1F24B18604B68BE
:103A60004360EE4B1B68C31AEC4D4C682D682C4428
:103A7000A360EA4C836824681A19824211D05388E3
:103A80007BB9E84B1B68834201D1E64B1A6043685F
:103A90005360E24B1B68D31AE04D44682D682C44F8
:103AA000A36030BD2DE9F04105460E46E81C20F02C
:103AB000030726F00308B8F1180F09D9A8F1180078
:103AC000B84205D3A8EB07001838D749086006E0CC
:103AD00032462946D5A0FFF7B3FEBDE8F081CF48B6
:103AE000076004684FF4F5502080CF4800680C3020
:103AF00060600020A0606080C84960680968084470
:103B0000C74908604FF4F550096808800120C4498E
:103B100009684880C44800680C30C1490968486099
:103B2000C14800680C30BE49096888600023012242
:103B3000CDA1CF48FEF7B9FDB8480068B949086083
:103B400000BFCAE72DE9F041054615B90020BDE8E0
:103B5000F081E81C20F00305B3480068854201D9D4
:103B60000020F4E70C2D00D20C254FF0FF31C048A7
:103B7000FEF7D9FDAB480068A8490968461A7EE0FF
:103B8000A648006884196088002874D106F10C00EA
:103B90006168081AA8426ED306F10C006168091A20
:103BA00005F11800814230D306F10C0000EB050846
:103BB0009A48006800EB08074FF4F5503880002061
:103BC000788060687860BE60C4F8048001206080FE
:103BD0009548796800680C30814205D08F49786833
:103BE00009680844C0F80880A248016805F10C0083
:103BF0000844A0490860A04800680968884219D2B2
:103C00009C4800689C49086014E00120608083495A
:103C100060680968611A401A96490968084495491C
:103C20000860954800680968884203D29148006896
:103C3000914908604FF4F55020807A48006884422A
:103C400012D107E077480068406874490968084461
:103C50007449086073480068408828B1714800685A
:103C60006F4909688842EDD18148FEF79DFD04F156
:103C70000C006CE7FFE769480068304446686A4812
:103C80000068401BB0423FF67BAF7948FEF78CFDE1
:103C900000205CE770B5054605B970BD5F48006857
:103CA000854203D35E480068854200D3F5E7A5F15D
:103CB0000C044FF0FF316E48FEF735FD608818B1F7
:103CC0002088B0F5F55F08D06CA0FFF7B9FD238818
:103CD0006288214670A0FFF7B3FD002060804FF49A
:103CE000F55020804F480068844201D24D4804605E
:103CF0004A4960680968611A401A5E490968081AE9
:103D00005C4908602046FFF797FE5948FEF74CFDD6
:103D100000BFC2E72DE9F05F06460C46E01C20F02C
:103D2000030441480068844202D90020BDE8F09FA6
:103D300024B93046FFF7AEFF0020F7E71EB9204652
:103D4000FFF700FFF2E74FF0FF314948FEF7EBFCC9
:103D500032480068864203D331480068864204D363
:103D60004348FEF721FD3046E0E7A6F10C082B485A
:103D70000068A8EB0009D8F80400A0EB0900A0F146
:103D80000C07A74204D13A48FEF70EFD3046CDE7B6
:103D900004F11800B84233D2381B36490968081AB2
:103DA0003449086009F10C0000EB040A1B48006864
:103DB00000EB0A054FF4F550288000206880D8F801
:103DC00004006860C5F80890C8F804A0164869683F
:103DD00000680C30814205D01049686809680844C1
:103DE000C0F808A00F480068854201D20D48056060
:103DF0002846FFF721FE1E48FEF7D6FC304695E721
:103E00001B48FEF7D1FC2046FFF79CFE8346BBF122
:103E1000000F62D0A74257D2384656E04400002037
:103E2000480000204C000020500000206D656D20EF
:103E3000696E69742C206572726F722062656769A1
:103E40006E206164647265737320307825782C204D
:103E5000616E6420656E64206164647265737320B2
:103E6000307825780A000000686561700000000065
:103E7000382400205400002058000020746F206671
:103E800072656520612062616420646174612062F2
:103E90006C6F636B3A0A00006D656D3A20307825CF
:103EA0003038782C207573656420666C61673A2021
:103EB00025642C206D6167696320636F64653A2017
:103EC0003078253034780A0020460246314658467C
:103ED000FFF72BF93046FFF7DDFE584626E770B5B1
:103EE00004460D4604FB05F0FFF72CFE06462EB1F6
:103EF00004FB05F200213046FFF7F3F8304670BDB1
:103F000010B1064B1B68036011B1054B1B680B60B9
:103F100012B1044B1B681360704700005000002072
:103F200054000020580000200268516002680A60B6
:103F3000016048607047D0E900215160D0E900126B
:103F400011604060006070477047024600210AE03F
:103F5000814800EB01100078904203D17E4800EBCD
:103F600001107047491C0529F2DB0020F9E72DE913
:103F7000F04107460025002600243846FFF7E5FFFC
:103F8000044614B90020BDE8F08100F01FFE804611
:103F9000666801E06D1C3668201D8642FAD14046F5
:103FA00000F018FE2846EEE72DE9F05F82468846CD
:103FB0001546002400260027002D02DC0020BDE865
:103FC000F09F5046FFF7C1FF07460FB90020F6E704
:103FD00000F0FCFD83467E6808E0A6F10C0948F875
:103FE0002490641CAC4200DB03E03668381D864236
:103FF000F3D100BF584600F0EDFD2046DFE72DE984
:10400000F04704460D46904600262846FFF79DFFE0
:10401000074600F04EF97E6802E0A6F10C00366813
:10402000381D8642F9D100F052F945F08000207227
:10403000082241462046FFF728F900F0C7FD8146D7
:1040400004F10C01381DFFF76FFF484600F0C2FD78
:10405000BDE8F08770B504460020207200F0B6FD80
:10406000054604F10C00FFF766FF284600F0B2FD9C
:1040700070BD2DE9F04106460F463046FFF765FF5B
:104080000546E868FFF75EFD044614B90020BDE868
:10409000F08100212046EA68FFF723F8267200200D
:1040A0006072082239462046FFF7EFF800F08EFDD7
:1040B000804604F10C01281DFFF736FF404600F052
:1040C00089FD2046E3E770B504460020207200F029
:1040D0007DFD054604F10C00FFF72DFF284600F09A
:1040E00079FD2046FFF7D6FD70BD0146087A00F045
:1040F000800008B1012070470020FCE70146087AE3
:1041000020F0800070472DE9F04104460F464FF043
:104110000008002500263846FFF717FF064604B1C1
:1041200016B90020BDE8F08100F0C3F875680CE016
:10413000A5F10C08082221464046FFF7C0F818B93F
:1041400000F0C5F84046EDE72D68301D8542EFD1FF
:1041500000F0BDF80020E5E75C00002010B500206D
:104160006D490880002405E06C4901EBC40000F0B3
:10417000D0F8641C202CF7DB1F2069490870002050
:104180006849086068490860684800F0C2F810BDD6
:1041900070B565480068FFF7DFFB451E5F4850F8C3
:1041A0003500A0F114045F48046004F11C0000F025
:1041B00042FD70BD2DE9F04100F008FD074656486C
:1041C000008838BB58480068FFF7C6FB461E5348B6
:1041D00050F83600A0F1140452480068844218D008
:1041E0004F490E704F48056804605148007850B937
:1041F00004F11C0105F11C0000F0EFFC384600F052
:10420000E9FCBDE8F08104F11C0105F11C0000F09F
:10421000E4FC00BF384600F0DDFC00BFF1E770B5FC
:10422000044600F0D3FC054614F8340F20F00F00CC
:1042300040F0010020706278343C384B03EBC20040
:1042400004F114014268116042684A6041600860EC
:1042500000BF3549A06B0968084333490860284608
:1042600000F0B8FC70BD70B5044600F0AFFC054628
:1042700004F11400D0E900215160D0E9001211606E
:104280004060006000BF94F83510244A02EBC10082
:104290000168814201D1012100E0002129B12248B9
:1042A000A16B0068884320490860284600F092FC12
:1042B00070BD10B500F08AFC044617480088401C09
:1042C00000B215490880204600F084FC10BD10B5EE
:1042D00000F07CFC044610480088401E00B20E49E5
:1042E00008800846B0F9000000280ADC0020088099
:1042F000204600F06FFC0B48006828B1FFF75AFF1A
:1043000002E0204600F066FC10BD0348008880B241
:104310007047406000607047B000002058240020C3
:10432000B8000020B4000020AC000020BC00002039
:104330003C0000200268516002680A600160486029
:104340007047D0E900215160D0E90012116040604F
:104350000060704770B5044600F038FC0546206FD9
:1043600010B12046216F8847284600F033FC70BD0D
:1043700070B5FB48046800F029FC05462046FFF7AD
:10438000E9FF2046FFF76FFF042084F8340004F1B2
:10439000440000F0ADFA2046FFF7A7FE012803D144
:1043A0002046FFF757FE04E004F11401ED48FFF743
:1043B000C1FFFFF7FFFE284600F00CFC70BD70B592
:1043C000044625466FF00100286305F11400FFF74D
:1043D000B8FF2846FFF723FFFFF7ECFE70BD2DE97D
:1043E000FC5F04468B4615461E46DDE90C9ADDE966
:1043F0000E7804F114004060006000BF1C3465605A
:10440000A660C4F80C90C4F810A02321D4E90302DC
:10441000FEF767FED4E9033C63441A1FAFF2AF0313
:10442000D4E9010100F04CFC2060A77667760020FB
:10443000E061C4F82080C4F8248060612076606563
:10444000A0651C3C00902346AFF28D0221460190EE
:1044500004F1440000F035FA0020BDE8FC9F2DE98E
:10446000FF5F05460C4616461F46DDE910ABDDE949
:104470000E89224601212846FFF7C1FD3B46324600
:10448000214628468DE8000FFFF7A9FF04B0BDE8DC
:10449000F09FB3480068704770B5044694F8340044
:1044A00000F00F00022802D04FF0FF3070BD00F086
:1044B0008DFB054604F11400FFF743FF04F14400AF
:1044C00000F0CAFA284600F085FB2046FFF7A7FE59
:1044D0000020EBE710B504463434A07860706178B2
:1044E000012088406060022004F834092046FFF76C
:1044F000D3FFFFF7CEFF08B1FFF75CFE002010BD31
:1045000070B5044694F8340000F00F00042801D17F
:10451000002070BD94F8340000F00F0010B1204668
:10452000FFF7A1FE2046FFF715FF04F1440000F05D
:10453000DFF9042084F834002046FFF7D6FD012877
:1045400003D12046FFF786FD0AE000F03FFB054659
:1045500004F114018348FFF7EDFE284600F03AFB12
:104560000020D6E72DE9FF5F06460F4690461D4620
:10457000DDE90EAB31460120FFF77BFD8146B9F145
:10458000000F03D1002004B0BDE8F09F2846FFF7DC
:10459000D9FA044624B94846FFF795FD0020F2E712
:1045A00043463A46314648468DE8300CFFF717FF40
:1045B0004846E8E770B5044694F8340000F00F0070
:1045C000042801D1002070BD94F8340000F00F00E1
:1045D00010B12046FFF747FE2046FFF7BBFE04F16F
:1045E000440000F085F900F0F1FA0546042084F853
:1045F000340004F114015B48FFF79CFE284600F0EC
:10460000E9FA0020DFE770B500F0E0FA054654480B
:10461000046894F8340000F00F0001281CD1D4E99C
:104620000510814218D004F11400FFF78AFE94F8B7
:1046300035204D4B03EBC20004F1140142681160B8
:1046400042684A604160086000BF284600F0C2FA34
:10465000FFF7B0FD002070BD284600F0BBFA002037
:10466000F9E770B5044694F8340000F00F00012813
:1046700002D04FF0FF3070BD00F0A8FA054620468A
:10468000FFF7F1FD94F8340020F00F0040F0020035
:1046900084F8340004F1440000F0DEF9284600F00C
:1046A00099FA0020E7E731B500F090FA05462C486A
:1046B00004682046FFF7D5FF6A46002104F1440054
:1046C00000F0E2F904F1440000F055F9284600F04A
:1046D00081FAFFF76FFD206B801C08B90020206372
:1046E000002038BD10B504462046FFF7DCFF10BDA2
:1046F0002DE9F04104460E46FFF7CBFE054600F0DB
:1047000065FA0746FDF787FE2168401AB0421DD2C0
:10471000FDF781FE21683144081A20602846FFF722
:10472000A0FF2246002105F1440000F0ADF905F19B
:10473000440000F020F9384600F04CFAFFF73AFD4B
:10474000286B801C28B90020286302E0384600F05E
:1047500041FAFDF760FE20600020BDE8F081000016
:10476000B4000020BC0000205824002070B504468E
:104770002046FDF773FE05462846FFF794FF70BDFF
:104780002DE9F04104460E4615463EB3012E2AD0CF
:10479000022E35D100F01AFA074694F8340000F0E2
:1047A0000F0001280ED12046FFF75DFD287884F820
:1047B000350094F8351001208840A0632046FFF7AB
:1047C0002EFD07E0287884F8350094F83510012094
:1047D0008840A063384600F0FDF912E02046FFF75C
:1047E00079FEBDE8F0812046FFF77FFC012803D168
:1047F0002046FFF785FEF4E72046FFF7DBFEF0E7F3
:1048000000BF00BF0020ECE710B5044601212046A0
:10481000FFF779FC10BD00000268516002680A6071
:10482000016048607047D0E900215160D0E9001272
:1048300011604060006070472DE9F04704460E4665
:1048400017469846DDF8209084F80990607A20F0A9
:1048500001006072E66127620020A062C4F8248033
:10486000002506E004F1140101EBC50000F09FF9FA
:104870006D1C012DF6DBBDE8F0872DE9F041044603
:104880004FF0FF3600F0A2F90746204600F092F9FB
:1048900018B92068A0F11405AE6A384600F09AF9FC
:1048A0003046BDE8F08170B50546002406E005F10C
:1048B000140101EBC400FFF7B6FF641C012CF6DB0A
:1048C00070BD2DE9F84307460C4615461E46DDE946
:1048D000088922460A213846FFF791FB43463246B3
:1048E00029463846CDF80090FFF7A6FFBDE8F883CB
:1048F00070B5044600F06AF905462046FFF7D3FF7D
:10490000607A20F001006072284600F063F92046CA
:10491000FFF7A0FB002070BD2DE9F84304460E46CA
:1049200017469846DDF8209021460A20FFF7A1FBA4
:10493000054615B90020BDE8F88343463A4631469E
:104940002846CDF80090FFF777FF2846F3E770B5CB
:10495000044600F03BF905462046FFF7A4FF607AC5
:1049600020F001006072284600F034F92046FFF77D
:10497000AAFB002070BD2DE9F843054600F026F99A
:1049800080462846FFF78FFF687A20F001006872A2
:10499000FDF741FD696A0844A8628A4F0097002428
:1049A0002AE019E05DF824201168142202EBC40209
:1049B000881A826AAB6AD21A00D108E0826AAB6AAE
:1049C000D21A6FF000439A4200D20CE000BF5DF8AB
:1049D000240000684DF824005DF8240007EBC401B2
:1049E00049688842DED100BF2CB15DF82400083050
:1049F000611C4DF82100641C002CD2D07248006864
:104A0000401C714908600846066805F114010098C9
:104A1000FFF702FF022412E006F0030060B9C4F1C0
:104A2000010305F1140202EBC301C4F101025DF8B8
:104A30002200FFF7F1FE00E003E0B608641C012C41
:104A4000EAD900BF687A40F001006872404600F081
:104A5000C1F80020BDE8F88370B50446607A00F024
:104A6000010010B94FF0FF3070BD00F0AFF80546FF
:104A70002046FFF718FF607A20F001006072284698
:104A800000F0A8F80020EFE72DE9F04104460E46BB
:104A9000154600F09BF80746052E1ED2DFE806F00B
:104AA0000603090E1300606A286017E02868606238
:104AB00014E0607A20F0020060720FE0607A40F04B
:104AC000020060720AE0607A00F0010010B101207B
:104AD000286001E00020286000E000BF00BF3846E9
:104AE00000F078F80020BDE8F0817CB5684600F061
:104AF0005EF8FDF790FC054600F068F806463AE0DF
:104B000030480068A0F11404A06A281A6FF0004130
:104B100088422ED22046FFF7C6FE607A00F00200DF
:104B200018B9607A20F00100607204F1140168463F
:104B3000FFF772FED4E907108847FDF76CFC0546C5
:104B4000684600F037F800B115E004F11400FFF7F3
:104B50006AFE607A00F0020060B1607A00F0010045
:104B600040B1607A20F0010060722046FFF703FF39
:104B700000E005E000BF134800F01CF80028BFD09B
:104B800000BF304600F026F87CBD10B50D48FFF799
:104B900074FE10BD10B5002405E00A4901EBC40005
:104BA00000F005F8641C002CF7D010BD7047406081
:104BB0000060704701460868884201D101207047B3
:104BC0000020FCE7C4000020CC000020EFF31080A0
:104BD00072B6704780F310887047324A1368012B11
:104BE00004D04FF0010313602F4A10602F4A116068
:104BF0002F484FF0805101607047EFF3108272B67A
:104C00002848016891B14FF0000101602648016811
:104C100029B1EFF3098121E9F00F00680160234910
:104C200009680968B1E8F00F81F3098882F31088F8
:104C30004EF0040E70471D4908601B494FF00000FC
:104C4000086018494FF0010008601A481A49D0F866
:104C5000002041EA0201016015484FF080510160D7
:104C600016480068006880F3088861B662B670472D
:104C70001EF0040F0CBFEFF30880EFF3098020E96A
:104C8000F00F40F804ED1EF0040F0CBF80F308880D
:104C900080F3098800B500F039F85DF804EB4EF0B8
:104CA000040E7047D8000020D0000020D40000205F
:104CB00004ED00E020ED00E00000FFFF08ED00E063
:104CC000F0B504460D461646301D20F0070040386A
:104CD0000146002203E0414F41F82270521C102A85
:104CE000F9D30D624FF0000CC1F824C0C1F828C000
:104CF000C1F82CC0C1F830C04B638C634FF0807C8E
:104D0000C1F83CC0F0BD36490860704770B5054633
:104D10002C1D3348006838B1284631490968884756
:104D2000064606B970BD00BF2EA0E16BFEF788FDF8
:104D300030A0216AFEF784FD32A0616AFEF780FD93
:104D400034A0A16AFEF77CFD36A0E16AFEF778FD8B
:104D500038A02168FEF774FD3AA06168FEF770FD87
:104D60003CA0A168FEF76CFD3EA0E168FEF768FD7F
:104D700040A02169FEF764FD42A06169FEF760FD75
:104D800044A0A169FEF75CFD46A0E169FEF758FD6D
:104D900048A0216BFEF754FD4AA0616BFEF750FD61
:104DA0004CA0A16BFEF74CFD287800F0040038B150
:104DB000FFF76FFB064631464AA0FEF741FD02E0D1
:104DC00050A0FEF73DFD00BFFEE710B554A0FEF772
:104DD00037FD10BD5648574908607047EFBEADDE3D
:104DE000DC0000207073723A203078253038780A61
:104DF000000000007230303A203078253038780AD0
:104E0000000000007230313A203078253038780ABE
:104E1000000000007230323A203078253038780AAD
:104E2000000000007230333A203078253038780A9C
:104E3000000000007230343A203078253038780A8B
:104E4000000000007230353A203078253038780A7A
:104E5000000000007230363A203078253038780A69
:104E6000000000007230373A203078253038780A58
:104E7000000000007230383A203078253038780A47
:104E8000000000007230393A203078253038780A36
:104E9000000000007231303A203078253038780A2E
:104EA000000000007231313A203078253038780A1D
:104EB000000000007231323A203078253038780A0C
:104EC00000000000206C723A203078253038780AD3
:104ED000000000002070633A203078253038780ACE
:104EE0000000000068617264206661756C74206F58
:104EF0006E207468726561643A2025730D0A0D0A8C
:104F00000000000068617264206661756C74206F37
:104F10006E2068616E646C65720D0A0D0A000000F7
:104F200073687574646F776E2E2E2E0A0000000071
:104F30000400FA050CED00E006E0FBF74BFB0E4920
:104F400008600A20FFF7CEFBF7E71CB50A20032113
:104F50004FF400730022CDE90010084908A0FFF7C4
:104F600001FB0B4908600846006818B10846006854
:104F7000FFF7B0FA1CBD0000E4000020394F000824
:104F800063757272656E745F636F6E74726F6C00BE
:104F9000F40000207047704770477047704700006A
:104FA00000487047582500207546FFF7F9FFAE46C8
:104FB00005006946534620F00700854618B020B525
:104FC000FBF716FDBDE820404FF000064FF000074C
:104FD0004FF000084FF0000B21F00701AC46ACE8A1
:104FE000C009ACE8C009ACE8C009ACE8C0098D460E
:104FF000704710B50446AFF300802046BDE810406E
:10500000FBF7DDB821F00042A2F16052B2F5801F3B
:1050100001F0004328BFD2F17F6C0BD95FEA001C7E
:1050200043EAC20242EB507018BF704728BF20F01D
:1050300001007047B2F5801FBCBF184670474FEAA9
:10504000410C1CF5001F02D2084600F019BD70B5D6
:1050500000F0CCFA00000089FFF7F6BF4FF00040E7
:10506000A0F580007047000010B591EA030F48BF1B
:1050700083F0004300F12283841A71EB030C05D204
:10508000121943EB0C03001B61EB0C01DFF824E168
:105090004FEA1154A4EB135C1EEA430F18BF9EEABB
:1050A000445F73D023EA0E03DCF1200E21EA0451A1
:1050B00043F4801332D322FA0CFE10EB0E0023FAD5
:1050C0000CFE41EB0E01CCF1200E03FA0EFE10EBAC
:1050D0000E0051F10001B1F5801FCCF1200E32D24B
:1050E00001EB045112FA0EF2BDE8104058BF7047B0
:1050F000401C38BF5FEA420218BF7047002814BF47
:1051000020F0010041F100014FEA410313F5001FB7
:1051100038BF7047A1F1C04100F0B6BA012A43EB95
:105120000302ACF1200CDCF11F0E32BF4FF0000E79
:1051300023FA0CF310EB030041EB0451B4EB115FC5
:10514000D0D0A1EB045101F5801149085FEA30008D
:1051500001EB04510ED350F1000038BF12FA0EFEDD
:1051600008D1BDE81040C9E7401C38BF5FEA4202E1
:10517000CAD1C3E7BDE810404FEA410313F5001F51
:1051800038BF7047A1F1C04100F07EBA9EEA445F8B
:1051900008D011EA5E0FBDE8104004BF01F00041E5
:1051A00000207047BDE8104070B500F01FFA00BF46
:1051B00064FBBE3E0000E0FF2DE9C04130B4DFF8E3
:1051C000A0C23CEA111418BF3CEA131400F0EC80B2
:1051D00081EA03051CEA111444EAD57418BF1CEADD
:1051E000131500F0C780A4EB05044FF0004545EA15
:1051F000C12145EAC32341EA505143EA525304F125
:105200007F74994204F500344FEAC0204FEAC2226D
:1052100008BF904200F09C804FEA13650FF24016E1
:10522000765D4FEA134506FB05F7C7F1807706FB6D
:1052300007F74FEAD737A7FB03687642C8F58038EF
:10524000A7FB06CE38BFA8F1010807FB08E64FF020
:10525000000EA6FB028CE6FB03CEDCF1000CCEF1C7
:10526000004E38BFAEF1010EA6FB0C584FF0000700
:105270004FF00005E6FB0E87A1FB08C6A0FB07CE9A
:1052800016EB0E0645F10005E1FB076515F1E04E52
:105290007EBFA4F580345FEA46066D4116F18007B3
:1052A00045F100054FEA17274FEA066647EA05670A
:1052B000A6F1DE46B6F1805F4FEA15251FD93846C4
:1052C00024F0010C05EBC471BCF1FE6F01EB0C1175
:1052D00002D8F0BCBDE8008124425CBF01F5801E0D
:1052E0009EEAC47F02D4F0BCBDE80081244238D4D9
:1052F000F0BCA1F1C041BDE8004100F0C5B94FEAE2
:10530000D22242EA43524FEAD323A7FB02864FEA56
:10531000D02040EA415007FB03661EEA0E0F4FEA19
:10532000D12105FB026658BFA6EB0056B6EB00562E
:105330004FEA520E4EEAC37E18EB0E0E56EB530E9A
:10534000BDD518EB02085E417F1C55F10005B6E79C
:105350004FF480154FF000074FF000064FF00008A3
:10536000ADE7F0BC4FF0000001F1C04101F0004199
:10537000BDE8008111EA0C1F0CEA131500D00CE007
:1053800013EA0C1F00F025804FF00000F0BC81EA0A
:10539000030101F00041BDE80081F0BCBDE800411F
:1053A00081EA030100F070B9F0BCBDE8004170B5BE
:1053B00000F01CF9097EFC3E00F007B881EA030109
:1053C0004FF0000001F00041704781EA030100F056
:1053D0005BB9F0BCBDE800414FF0000021497047C7
:1053E000FFFDFBF9F7F5F4F2F0EEEDEBE9E8E6E4AA
:1053F000E3E1E0DEDDDBDAD8D7D5D4D3D1D0CFCD31
:10540000CCCBCAC8C7C6C5C4C2C1C0BFBEBDBCBB69
:10541000BAB9B8B7B6B5B4B3B2B1B0AFAEADACAB64
:10542000AAA9A8A8A7A6A5A4A3A3A2A1A09F9F9E3E
:105430009D9C9C9B9A9999989797969595949393F0
:10544000929191908F8F8E8E8D8C8C8B8B8A898987
:10545000888887878685858484838382828181800A
:105460000000FF070000F87F10F0004248BF4042F4
:10547000B0FA80F310FA03F10AD0C3F11D0303F56B
:1054800080634FEA415002EB035202EBD121704797
:105490004FF0000070470000DFF848C170B51CEA0B
:1054A000111E1EBF1CEA13159EEA0C0F95EA0C0F85
:1054B00000F06F8081EA030423EA4C134EEAD47EA5
:1054C00021EA4C1141F4801143F48013AE44A1FB56
:1054D000024CA0FB0365AEF17F7E361955EB0C053F
:1054E000A1FB034C4CF10003A0FB021C16EB0C06C5
:1054F000654153F10003094218BF46F0010613F459
:10550000007F0BD14FEA03314FEA0530340341EA03
:10551000155140EA16506FF003020AE04FEAC3212A
:105520004FEAC520F40241EA555140EA56506FF067
:10553000020202EB2E4201EB025585EACE710AD03F
:105540005FEA440C18BF24F0004450F1000041F120
:10555000000120EAD47040F2FE7C624500D270BDAA
:10556000A84214BF4FF080444FF04044002E08BFC3
:105570000024BEF1806FA8BFA1F1C041BDE870401A
:1055800080F282804FF0000001F1C04101F0004143
:1055900070479EEA0C0F0CEA131518BF95EA0C0F22
:1055A00006D04FF0000081EA030E0EF0004170BDFE
:1055B00000F01CF88900013E00F007B800F009B8BF
:1055C0004FEA430C5FEA5C5C08D081EA030100F01B
:1055D0005BB84FEA410C5FEA5C5CF6D14FF000002B
:1055E000014970470000FF070000F87F0EF1020E2E
:1055F0002EF0030E5EF8046B364205D4012A43EB0D
:10560000030515F5001F12D8012841EB010C1CF50C
:10561000001F0CD80ED14FEAD17C15F5001F0CEB02
:105620004C0C0CF1020C08BF4CEBD37C04E04FF0A7
:10563000080C01E04FEAD37C0CEB4C0526FA05F68A
:1056400006F00706B6F1040C06D20EEB860CBDE898
:1056500070404CF0010C6047DFE80CF0090B0202CF
:105660004FF000414FF00000A1F5002170BD194638
:105670001046012851EB010418BFD4F5001484BF73
:10568000002001F0004170BD0808A0F500114FEAAC
:105690003101704791EA030F10B581F000413FF5E9
:1056A000EBAC83F0004300F009B8000010B591EABC
:1056B000030F48BF83F000433FF5DEAC841A71EB63
:1056C000030C07D212198CF0004C43EB0C03001BA7
:1056D00061EB0C01DFF8A4E14FEA1154A4EB135C79
:1056E0001EEA430F18BF9EEA445F00F0B08023EA31
:1056F0006E03524221EA0451C3EB6E0338BF5B1EB6
:10570000DCF1200E25D322FA0CFE10EB0E0043FA3A
:105710000CFE41EB0E01CCF1200E03FA0EFE10EB55
:105720000E0051F10001CCF1200E29D412FA0EF234
:1057300001EB0451BDE8104058BF7047401C1CBF2E
:10574000B2F1004F704700280CBF491C20F0010047
:10575000704712EB020E43EB030218BF4FF0010E2D
:105760004EEA4202ACF1200CDCF11E0E54D943FA91
:105770000CFE10EB0E0051F1FF31CCF11E0ED5D511
:105780000EF1010E12FA0EFE404141EB010101EB58
:10579000445C5FEA5C5C10D910EBDE7001EB0451F5
:1057A00038BFBEF1004FBDE8104018BF7047002859
:1057B0000CBF491C20F00100704730D24FEAD42CB6
:1057C00011F5001124F400641BD0B1FA81F20B3AF8
:1057D000A41AA41ED2F12003914030FA03F3194316
:1057E000904001EBCC71002C01EB0451BDE810405E
:1057F000A8BF704701F1C0414FF0000001F0004127
:105800007047B0FA80F310FA03F100D110BDE41A2A
:10581000173C4805C90AE4E701EB045110BD4910E3
:1058200001EB0451BDE810404FEA300002E04FF0B8
:10583000000170474A0008BF0042F8D0B2F5001FCF
:1058400028BF704701F000414FF0000070479EEA0A
:10585000445F07D011EA5E0FBDE8104004BF00218D
:1058600000207047BDE8104070B5FFF7BFFE00BFD5
:1058700040DFF63E83F00041104670470000E0FF35
:1058800090EA010F48BF81F0004100F13681421AD1
:105890003CBF801A89184FEAD0524FF07F4C1CEA67
:1058A000410FA2EBD15318BF9CEA026F00F03B807E
:1058B0004FF0004C4CEA00204CEA012121FA03FC95
:1058C00010EB0C0C1ED202F1FF325FEA1C2040EB01
:1058D000C25038BF70471CF07F0F4FEA400C18BF12
:1058E000BCF17F4F38BF7047C3F12003994008BF18
:1058F00020F00100BCF17F4F38BF7047A0F1C040DD
:1059000000F0BEB84FEA3C00000A40EBC25028BF8E
:105910001CF0FF0F4FEA400CE6D018BFBCF17F4FE0
:1059200038BF7047EAE79CEA026F05D010EA5C0FC7
:1059300008BF00F00040704710B500F05BF800BFF2
:1059400064FBBE3E401058BFC0F14040491058BFF4
:10595000C1F140418142EFF30080704710F00041F7
:1059600048BF4042B0FA80F310FA03F2C3F19D033E
:105970000BD051EAC35101EB1220530638BF7047D8
:1059800000F1010008BF20F00100704750EA010C4F
:1059900000F113801CF5000F58BFBCF5000F01D4B7
:1059A0008842704707D710F5000F58BF11F5000F58
:1059B00015D488427047894270471CF5000F04D502
:1059C000BCF5000FF7D5814270474FF0807C1CEB8F
:1059D000400F38BF1CEB410F01D28142704710B518
:1059E00000F008F8922449004FF000504FF0805129
:1059F000FFF7A8BF0EF1020E2EF0030E5EF8044B67
:105A0000244204D44FEA4102B2F17F4F11D84FEA49
:105A10004003B3F17F4F0CD80ED14FEAD07CB2F1E6
:105A20007F4F0CEB4C0C0CF1020C08BF4CEBD17C03
:105A300004E04FF0080C01E04FEAD17C0CEB4C0382
:105A400024FA03F404F00704B4F1040C06D20EEBBC
:105A5000840CBDE810404CF0010C6047DFE80CF00E
:105A6000070802024FF00040A0F5800010BD084674
:105A7000420018BFD2F1807288BF00F0004010BD14
:105A8000FF2141EAD050C005704751EA000C00F1F7
:105A900013801CF5000F58BFBCF5000F01D48142E4
:105AA000704707D711F5000F58BF10F5000F15D438
:105AB00081427047894270471CF5000F04D5BCF540
:105AC000000FF7D5884270474FF0807C1CEB410FE8
:105AD00038BF1CEB400F01D28842704780EA0100BA
